:020000040800F2
:100000000000022089060008850600082561000816
:100010008506000885060008850600080000000027
:10002000000000000000000000000000850600083D
:10003000850600080000000085060008A960000889
:100040008506000885060008850600088506000864
:100050008506000885060008850600088506000854
:10006000850600088506000885060008D14D0008B1
:10007000DD4D000885060008E94D0008F54D000833
:10008000FD090108014300088506000885060008EF
:100090008506000885060008850600088506000814
:1000A0008506000885060008850600088506000804
:1000B00005FE000811FE00081DFE0008354300087B
:1000C000850600084143000885060008A959000874
:1000D000B5590008310801085D08010891080108B8
:1000E0008506000885060008000000008506000857
:1000F00085060008850600088506000885060008B4
:10010000850600088506000829FE0008C159000878
:10011000C5080108F90801088506000885060008D9
:100120008506000885060008E5590008195A0008E8
:10013000310A0108850600088506000885060008C2
:1001400000000000000000000000000000000000AF
:100150008506000885060008850600082D090108A7
:100160004D43000885060008B9600008DD600008FE
:10017000850600080161000885060008850600085C
:10018000850600088506000861090108950901082F
:10019000CD590008D95900088506000885060008D1
:1001A0008506000885060008850600088506000803
:1001B000F14A000885060008850600088506000843
:1001C0008506000885060008853C0008913C00086B
:1001D000850600089D3C0008850600088506000885
:1001E00085060008850600088506000885060008C3
:1001F00085060008850600088506000885060008B3
:1002000085060008850600088506000885060008A2
:100210008506000885060008850600088506000892
:100220008506000885060008850600080000000015
:100230008506000885060008000000008506000805
:100240008506000885060008850600088506000862
:100250008506000885060008850600088506000852
:100260008506000885060008850600088506000842
:100270008506000885060008C9090108000000007D
:1002800085060008850600088506000800000000B5
:080290000000000085060008D3
:1002A00010B5054C237833B9044B13B10448AFF3B0
:1002B00000800123237010BD080600240000000008
:1002C00044E0010808B5034B1BB103490348AFF3F1
:1002D000008008BD000000000C06002444E0010876
:1002E00001F0FF01102A2BDB10F0070F08D010F8E7
:1002F000013B013A8B422DD010F0070F42B3F6D1EB
:10030000F0B441EA012141EA014122F007047FF003
:1003100000070023F0E80256083C85EA010586EA5A
:10032000010685FA47F5A3FA87F586FA47F6A5FA96
:1003300087F68EB9EED1F0BC01F0FF0102F00702A2
:1003400032B110F8013B013A83EA010313B1F8D14D
:100350000020704701387047002D06BF354603382E
:10036000073815F0010F07D1013015F4807F02BF67
:10037000013015F4C03F0130F0BC0138704700BFB8
:1003800053B94AB9002908BF00281CBF4FF0FF31FC
:100390004FF0FF3000F074B9ADF1080C6DE904CEF8
:1003A00000F006F8DDF804E0DDE9022304B0704750
:1003B0002DE9F047089D04468E46002B4DD18A4218
:1003C000944669D9B2FA82F252B101FA02F3C2F14B
:1003D000200120FA01F10CFA02FC41EA030E9440DC
:1003E0004FEA1C48210CBEFBF8F61FFA8CF708FBFD
:1003F00016E341EA034306FB07F199420AD91CEBD5
:10040000030306F1FF3080F01F81994240F21C8106
:10041000023E63445B1AA4B2B3FBF8F008FB10334E
:1004200044EA034400FB07F7A7420AD91CEB040483
:1004300000F1FF3380F00A81A74240F20781644453
:10044000023840EA0640E41B00261DB1D4400023D8
:10045000C5E900433146BDE8F0878B4209D9002D3C
:1004600000F0EF800026C5E9000130463146BDE8C6
:10047000F087B3FA83F6002E4AD18B4202D3824230
:1004800000F2F980841A61EB030301209E46002DDF
:10049000E0D0C5E9004EDDE702B9FFDEB2FA82F234
:1004A000002A40F09280A1EB0C014FEA1C471FFA92
:1004B0008CFE0126200CB1FBF7F307FB131140EA79
:1004C00001410EFB03F0884208D91CEB010103F146
:1004D000FF3802D2884200F2CB804346091AA4B208
:1004E000B1FBF7F007FB101144EA01440EFB00FEDC
:1004F000A64508D91CEB040400F1FF3102D2A64541
:1005000000F2BB800846A4EB0E0440EA03409CE7DF
:10051000C6F12007B34022FA07FC4CEA030C20FA8C
:1005200007F401FA06F31C43F9404FEA1C4900FAAC
:1005300006F3B1FBF9F8200C1FFA8CFE09FB181129
:1005400040EA014108FB0EF0884202FA06F20BD99C
:100550001CEB010108F1FF3A80F08880884240F2EC
:100560008580A8F102086144091AA4B2B1FBF9F030
:1005700009FB101144EA014100FB0EFE8E4508D92B
:100580001CEB010100F1FF346CD28E456AD90238B0
:10059000614440EA0840A0FB0294A1EB0E01A14295
:1005A000C846A64656D353D05DB1B3EB080261EB03
:1005B0000E0101FA07F722FA06F3F1401F43C5E9DD
:1005C000007100263146BDE8F087C2F12003D84013
:1005D0000CFA02FC21FA03F3914001434FEA1C4755
:1005E0001FFA8CFEB3FBF7F007FB10360B0C43EA47
:1005F000064300FB0EF69E4204FA02F408D91CEBF7
:10060000030300F1FF382FD29E422DD902386344F4
:100610009B1B89B2B3FBF7F607FB163341EA034194
:1006200006FB0EF38B4208D91CEB010106F1FF38E3
:1006300016D28B4214D9023E6144C91A46EA0046DA
:1006400038E72E46284605E70646E3E61846F8E66C
:100650004B45A9D2B9EB020864EB0C0E0138A3E7B5
:100660004646EAE7204694E74046D1E7D0467BE796
:10067000023B614432E7304609E76444023842E70E
:10068000704700BFFEE700BF0B480C4A904203D002
:10069000121A0B4912F012FC0A480B4A904203D07E
:1006A000121A002112F018FC05F098FF12F0DAFB84
:1006B00000F024F8FEE700BF000000240806002434
:1006C00078E0010808060024245E0024704700BF7B
:1006D0009AB10368406803EB820C10B40C68496857
:1006E00053F8042B44F8042B634550F8042B41F8CD
:1006F000042BF5D15DF8044B704770472DE9F04F9E
:10070000002197B06D48FF2401F0C8FF04216B4819
:100710004FF0000A01F0EAFE03216848E82601F0E4
:10072000C9FE67496548D92501F0C0FE002003F0E5
:10073000E1F94FF4A070F023624A6349A0460090AB
:100740005746624801F032F90121604801F05AF938
:10075000AB23E1203422EB218DF83A308DF83500BF
:100760005F208DF8453059238DF834208DF83610F0
:100770008DF838208DF839108DF83D108DF83E2019
:100780008DF841108DF842208DF844108DF84620E8
:100790008DF848108DF8493064238DF84A208DF883
:1007A0003C00DFF828918DF82CA08DF82D408DF8B5
:1007B0002EA08DF82F408DF830A08DF831A08DF847
:1007C00032408DF833408DF837408DF83B408DF83E
:1007D0003F408DF843408DF847408DF84B408DF8F1
:1007E00040608DF84C108DF84D208DF851208DF81B
:1007F00054208DF85520364A8DF84E0048468DF825
:1008000052108DF856106E2101928C220093DFF861
:10081000CCB08DF850508DF84F408DF853408DF886
:100820005740CDE9024A01F0F1FC2A4C4FF07F43DA
:100830002949002225484E1CC9F8E43089F8E2A075
:1008400089F8E380C9E9364B029C89F8E040039CB3
:1008500089F8E14001F01CFEDBF8003031466F24DE
:1008600042225D681889002301E011F8014FA2EBD4
:10087000000C224605EBCC0C9CF804C063449BB2F0
:10088000002CF2D1029A1E338DF812A01E218DF891
:1008900010209BB2039A8DF813808DF8112033221B
:1008A000049D0A48CDE9002501F06CF9DBF8003021
:1008B0006F2542225868198914E000BF18070024E8
:1008C000D106000800000030000000C030060024FF
:1008D000586801081E003200204301082406002445
:1008E00016F8015F531A2A4600EBC3031B791C4418
:1008F000A4B2002DF4D1049E34221E341E216B4874
:100900004FF03C0AA3B2CDE9002601F03BF9049C6C
:10091000322346221E216548CDE900A401F060FA89
:100920008224049E462250231E2160489046CDE931
:10093000004601F027F9049E224650231E215B4801
:10094000CDE9008601F01EF90498FF2632234246C5
:100950006421CDE900A055484FF05F0A01F0B2F8DC
:100960008DF814508DF8155096238DF81650424688
:100970008DF8176064210598CDE900404B4801F0DF
:1009800001F98DF814508DF8155022468DF8165047
:1009900096238DF817606421059C4448CDE90084B6
:1009A00001F0F0F8049C19235246C3213F480094FB
:1009B00001F052FA049CDC235246AA213B48CDE9BF
:1009C00000A401F0DFF8C323049878214246009187
:1009D00019460190354801F0D5F80498192352467C
:1009E00040F209110090314801F038FB8DF81450A5
:1009F0008DF815504FF491738DF8165052468DF8BE
:100A00001760F0210598CDE900A0284801F0BAF858
:100A10008DF814508DF8155040F209138DF81650CA
:100A200042468DF817601946059C204801947824A9
:100A3000009401F0A7F81E4B3A461E4905A8C9F8D4
:100A4000D83012F045FB012205A9184801F0DAFC64
:100A50007A1CD2B20B2A19D9B046AA462A46039567
:100A60000296134B05A813492F46C9F8D83012F047
:100A70002FFB002205A90D4801F0C4FC0B4800F033
:100A8000E1FE40F2DC5005F0BDFBCEE616AB1546AC
:100A900003EB820313F8301C13F82EAC029113F809
:100AA0002F1C13F82D8C0391DBE700BF30060024C8
:100AB0001E00C8002C43010838B526480023264AEA
:100AC0002649036043610362C36312F0AFF9244B0C
:100AD00003F132011A462A2002F8050B8A42FAD1A4
:100AE0001F4A05322B208A4282F82D00F9D11D4978
:100AF0002C2283F8642003F201638B42F8D11A4B55
:100B0000002208244FF60B7102204FF0FF351A60C7
:100B100098621A625A66C3F8DC201448C3E9064298
:100B20004FF07F44C3E90B12C3E91012C3E90D2251
:100B3000C3E91222C3E91522C3E91722C3E933220C
:100B4000C3E93522C3E938540949BDE8384000F00B
:100B50008FBF00BF1807002400000024CD06000846
:100B6000000000300A3C0030300600242406002437
:100B7000344301082DE9F04F00F1400683B00546EB
:100B80001123304600218DF8073003F07FF9012250
:100B90000DF107016423284605F06CF9782005F073
:100BA00031FB1323304600218DF8073003F06EF936
:100BB00001220DF107016423284605F05BF9362375
:100BC0003046002100278DF8073003F05FF96423D9
:100BD00001220DF1070128464FF00A0805F04AF9F5
:100BE000304601218DF8077003F050F901220DF114
:100BF0000701642328464FF0C00905F03BF9B623EE
:100C0000394630468DF8073003F040F9642301225D
:100C10000DF10701284605F02DF9304601218DF828
:100C2000078003F033F901220DF107016423284600
:100C30000C2405F01FF98223304601218DF807307E
:100C400003F024F901220DF107016423284605F081
:100C500011F9B023394630468DF8073003F016F904
:100C6000642301220DF10701284605F003F93046FF
:100C700001218DF8077003F009F9642301220DF1B9
:100C8000070128464FF0330A05F0F4F830460121F9
:100C90008DF8079003F0FAF801220DF107016423A3
:100CA00028464FF00E0B05F0E5F83A23394630465A
:100CB0008DF8073003F0EAF801220DF107016423F3
:100CC000284605F0D7F85523304601218DF8073026
:100CD00003F0DCF801220DF107016423284605F03A
:100CE000C9F8404605F08EFAB223394630468DF8F1
:100CF000073003F0CBF8642301220DF107012846E9
:100D000005F0B8F8304601218DF8074003F0BEF831
:100D1000642301220DF10701284605F0ABF83046A7
:100D200001218DF8074003F0B1F8642301220DF191
:100D30000701284605F09EF8304601218DF807701E
:100D400003F0A4F8642301220DF10701284605F001
:100D500091F8304601218DF807A003F097F864233D
:100D600001220DF10701284605F084F830460121E3
:100D70008DF807A003F08AF801220DF10701642322
:100D800028464FF0280A05F075F8B7233946304653
:100D90008DF8073003F07AF801220DF10701642382
:100DA000284605F067F83523304601218DF80730D5
:100DB00003F06CF801220DF107016423284605F0C9
:100DC00059F8BB23394630468DF8073003F05EF8FA
:100DD000642301220DF10701284605F04BF8304647
:100DE00001218DF807A003F051F8642301220DF1D1
:100DF0000701284605F03EF8394630468DF8079041
:100E000003F044F8642301220DF1070128464FF056
:100E1000D00905F02FF8304601218DF8074003F086
:100E200035F801220DF1070164232846012405F05D
:100E300021F8C223394630468DF8073003F026F8F2
:100E4000224664230DF10701284605F013F82146D8
:100E500030468DF8074003F019F822460DF10701DE
:100E60006423284605F006F8FF23214630468DF816
:100E7000073003F00BF822460DF1070164232846E2
:100E800004F0F8FFC323394630468DF8073002F0EE
:100E9000FDFF22460DF107016423284604F0EAFF16
:100EA0001023214630468DF8073002F0EFFF22462E
:100EB0000DF107016423284604F0DCFFC423394602
:100EC00030468DF8073002F0E1FF22460DF10701B0
:100ED0006423284604F0CEFF2023214630468DF8B7
:100EE000073002F0D3FF22460DF1070164232846A4
:100EF00004F0C0FFC623394630468DF8073002F0B3
:100F0000C5FF22460DF107016423284604F0B2FF15
:100F10000F23214630468DF8073002F0B7FF2246F6
:100F200064230DF10701284604F0A4FF394630463A
:100F30008DF8079002F0AAFF22460DF10701642305
:100F4000284604F097FFA423214630468DF8073049
:100F500002F09CFF22460DF107016423284604F0AD
:100F600089FFA123214630468DF8073002F08EFF1D
:100F700022460DF107016423284604F07BFFE0239D
:100F8000394630468DF8073002F080FF2246642350
:100F90000DF10701284604F06DFF214630468DF81B
:100FA000079002F073FF224664230DF107012846E3
:100FB00004F060FF214630468DF8077002F066FFAE
:100FC00022460DF107016423284604F053FF4FF039
:100FD0000203214630468DF8073002F057FF6423A4
:100FE00022460DF10701284604F044FF4FF00702A6
:100FF000214630468DF8072002F048FF2246642340
:101000000DF10701284604F035FF214630468DF8E2
:10101000078002F03BFF224664230DF107012846BA
:1010200004F028FF214630468DF807A002F02EFF7D
:1010300022460DF107016423284604F01BFF3223EA
:10104000214630468DF8073002F020FF22460DF190
:1010500007016423284604F00DFF4423214630464F
:101060008DF8073002F012FF22460DF107016423CC
:10107000284604F0FFFE4223214630468DF8073013
:1010800002F004FF22460DF107016423284604F014
:10109000F1FE0623214630468DF8073002F0F6FEB9
:1010A000224664230DF10701284604F0E3FE2146A1
:1010B00030468DF807B002F0E9FE22460DF1070137
:1010C0006423284604F0D6FE1223214630468DF8CC
:1010D000073002F0DBFE22460DF1070164232846AB
:1010E00004F0C8FE1423214630468DF8073002F084
:1010F000CDFE224664230DF10701284604F0BAFE16
:101100004FF0170130468DF80710214602F0BEFE61
:101110000DF10700224664230146284604F0AAFE8A
:10112000E123394630468DF8073002F0AFFE0DF16D
:101130000700224664230146284604F09BFE214610
:1011400030468DF8079002F0A1FE0DF1070022460F
:1011500064230146284604F08DFE214630468DF872
:10116000077002F093FE0DF107002246642301464A
:10117000284604F07FFE4FF00203214630468DF8EA
:10118000073002F083FE0DF107006423224601467A
:10119000284604F06FFE4FF00702214630468DF8D6
:1011A000072002F073FE0DF107002246642301467A
:1011B000284604F05FFE214630468DF8078002F095
:1011C00065FE0DF10700224664230146284604F01F
:1011D00051FE214630468DF807A002F057FE0DF172
:1011E0000700224664230146284604F043FE3123CB
:1011F000214630468DF8073002F048FE0DF1070019
:10120000224664234FF021080146284604F032FEAE
:101210005423214630468DF8073002F037FE0DF199
:101220000700224664230146284604F023FE472394
:10123000214630468DF8073002F028FE0DF10700F8
:10124000224664230146284604F014FE2146304617
:101250008DF807B002F01AFE0DF107002246642354
:101260000146284604F006FE1C23214630468DF830
:10127000073002F00BFE0DF1070022466423014601
:10128000284604F0F7FD4FF0170130468DF807109F
:10129000214602F0FBFD22460DF10701642328469A
:1012A00004F0E8FD1B23214630468DF8073002F09C
:1012B000EDFD22460DF107016423284604F0DAFD16
:1012C0001E23214630468DF8073002F0DFFD22460E
:1012D0000DF107016423284604F0CCFD2A2339468A
:1012E00030468DF8073002F0D1FD224664230DF11F
:1012F0000701284604F0BEFD214630468DF80770F0
:1013000002F0C4FD224664230DF10701284604F0D3
:10131000B1FD214630468DF8077002F0B7FD224638
:1013200064230DF10701284604F0A4FD2146304650
:101330008DF8077002F0AAFD22460DF10701642323
:10134000284604F097FDEF23214630468DF80730FC
:1013500002F09CFD22460DF107016423284604F0AB
:1013600089FD2B23394630468DF8073002F08EFD7B
:10137000224664230DF10701284604F07BFD214637
:1013800030468DF8077002F081FD224664230DF18E
:101390000701284604F06EFD214630468DF807709F
:1013A00002F074FD224664230DF10701284604F083
:1013B00061FD214630468DF8074002F067FD224668
:1013C0000DF107016423284604F054FD3F23214614
:1013D00030468DF8073002F059FD224664230DF1A6
:1013E0000701284604F046FD394630468DF807804F
:1013F00002F04CFD224664230DF10701284604F05B
:1014000039FD394630468DF8078002F03FFD22460F
:101410000DF107016423284604F02CFD782004F028
:10142000F1FE2923394630468DF8073002F02EFDB3
:10143000642322460DF10701284604F01BFD7820A5
:1014400003B0BDE8F04F04F0DDBE00BF254B1A88A5
:101450009B882DE9F041002582B00126828003811E
:1014600000F14008032708221F4B044682613246E0
:10147000C5804581466119682B46C0E90355C0E91E
:101480000766C0E909554046009702F00DFC009739
:10149000164A04F12C072B4611683846324602F0F2
:1014A00003FC3146404602F0F1FC3146384602F07A
:1014B000EDFC211D204604F055FC2946384602F07B
:1014C000E5FC322004F09EFE3146384602F0DEFC98
:1014D000322004F097FE204602B0BDE8F041FFF74D
:1014E00049BB00BFE44201088CDD010888DD01082A
:1014F00070B500F1400682B0362304460D463046F2
:1015000000218DF8073002F0C1FC642301220DF1A7
:101510000701204604F0AEFC032D11D8DFE805F0EA
:101520001A161202A023012130468DF8073002F06E
:10153000ADFC642301220DF10701204604F09AFC62
:1015400002B070BDC02330460121EEE76023304673
:101550000121EAE7002330460121E6E7B0F8D23066
:101560000121D0F8CC2003EB8303333370B5D518B9
:1015700082B00446064E403002F088FC002304226C
:10158000294620460194009604F07EFC02B070BD0E
:101590006D160008B0F8D23001339BB2092B88BF1A
:1015A000002370B5A0F8D23082B0B0F8D430044631
:1015B000013B9BB2A0F8D4301BB980F8D63002B002
:1015C00070BDB0F8D2300021D0F8CC20403003EB11
:1015D0008303074ED51802F059FC00230122294647
:1015E00020460194009604F04FFC02B070BD00BF8D
:1015F00035160008B0F8D2300121D0F8CC2070B5F3
:1016000003EB430582B00446094E03EB452340300B
:101610006533D51802F03AFC00234FF4C062294626
:1016200020460194009604F02FFC02B070BD00BF6C
:1016300095150008B0F8D2300121D0F8CC2003EB8A
:1016400083030B4470B5D51882B00446064E403073
:1016500002F01CFC00230422294620460194009637
:1016600004F012FC02B070BDA9160008B0F8D23028
:101670000021D0F8CC2070B503EB430582B00446BE
:10168000084E03EB452340306433D51802F0FEFBCF
:1016900000230122294620460194009604F0F4FB21
:1016A00002B070BDF5150008B0F8D2300021D0F8B6
:1016B000CC2003EB8303323370B5D51882B00446D7
:1016C000064E403002F0E2FB00230122294620466C
:1016D0000194009604F0D8FB02B070BD5D150008BF
:1016E0002DE9F043BDF81C80089F42454AD8461CAE
:1016F000B7F85C00D7F854C08142B7F85E5045D3C4
:10170000441E95421FFA84F943D8013DADB200FB57
:1017100005F5834209EB050E0CEBCE0E34D30138F0
:1017200084B225440CEBC505AE4527D8A4EB0904CB
:10173000351DB01C0EF1080E24F0604405EB440585
:101740001EF806CC02301EF8079C0EF1080E2CF095
:10175000070C85424CEA591C00F804CC1EF80FCC4B
:101760001EF8109C4FEACC0C2CF01F0C4CEAD90C44
:1017700000F803CCE4D1013406EB4406013292B206
:101780009045B5D2BDE8F0831C46CAE7954289462C
:10179000BBD91546BBE700BFF0B5044683B062B6BF
:1017A000B0F8643001F1FF3EB0F8D0C00F0A9E449B
:1017B000D0F8CC300CEB8C0CB0F866609C441FFA6F
:1017C0008EF3CEF3072E8CF802108CF801708CF893
:1017D00003E002F1FF3E8CF80430B0F8D0C0B6440C
:1017E000D0F8CC50100A0CEB8C0CAC448CF83300C5
:1017F0001FFA8EF0CEF3072E8CF834208CF83600CA
:101800008CF835E0CDE90004B4F8D0C0D4F8CC00B1
:101810000CEB4C050CEB452C0CF1640C6044FFF711
:101820005FFFB4F8D030012001339BB2092B88BF91
:101830000023A4F8D030B4F8D4300344A4F8D43052
:1018400003B0F0BD2DE9F043002583B0044600F15C
:10185000670803E00135ADB2642D4FD018F8013FA1
:10186000002BF7D0284B0022B4F86460A3FB0513CB
:10187000B4F8667088F80020DB0817FB03F703EB69
:101880008302A5EB4202BFB216FB02F6B6B203E03A
:1018900062B6012004F0B8FC72B6B4F8D4303A460F
:1018A00031462046092BF3D8FFF776FF0028F0D009
:1018B00072B6B4F8D43023B394F8D6600EBB62B6D7
:1018C000B4F8D2304FF00109D4F8CC70314603EBB4
:1018D000830304F14000013584F8D6901F4402F0E0
:1018E000D5FADFF828C0ADB233464A46394620461D
:1018F000CDE900C404F0C8FA642DAFD103B0BDE84F
:10190000F08362B6A6E700BFCDCCCCCC351600087C
:101910002DE9F047B0F85E900446476DB9F1000F2D
:1019200038D0B0F85C00002600F1FF3833461FFACB
:1019300088F808F101084FEAC80838B3B4F866E03F
:101940000021B4F8645007F108028C46B3FBFEF3A3
:1019500003EB83034FEA430E1FFA8EFE0131083278
:101960004FF0000ABCFBF5F373441FFA81FC02F848
:101970000EAC9BB2844502F80FAC03F1680302F889
:1019800010AC234442F80C3CE8D347440136B3B2D0
:101990009945D2D804F168006422012111F09CFA23
:1019A0002046BDE8F047FFF74DBF00BF2DE9F041ED
:1019B00004461D461746BDF818608846FFF746FDE9
:1019C0000F4B2046A4F85C50A4F85850A3FB052503
:1019D000A3FB0623ED08C4F85480DB08C4F8CC70E0
:1019E000A4F85E60A4F85A60A4F86450A4F86050AB
:1019F000A4F86630A4F86230BDE8F041FFF788BF74
:101A0000CDCCCCCC38B590F8D63004460D4633B1A9
:101A1000012004F0F7FB94F8D630002BF8D12946CA
:101A20002046FFF765FD032D21D8DFE805F01702FA
:101A30001702B4F85800B4F85A10B4F86020B4F89B
:101A40006230A4F85E002046A4F85C10A4F866207A
:101A5000A4F86430BDE83840FFF75ABFA26D2046B5
:101A6000236EE2656366BDE83840FFF751BF38BDBD
:101A700010B5B1F80AE04FF0000C0B890EF1010E21
:101A80004A680160AEEB030E4260A0F808C01FFA7E
:101A90008EF3B3B102EBC30E644603E090F9094044
:101AA00090F908C092F90610083212F8053C0B4470
:101AB0005BB2A342C8BF43726145B8BF01727245B1
:101AC000ECD110BD2DE9F04F002B83B0BDF9307083
:101AD00004DA9BB219445B4289B21BB2002F04DACC
:101AE000BFB23A447F4292B23FB21744BA4245DA9B
:101AF000B0F85C900B44B0F85EA009F1FF389BB2DF
:101B0000466D1FFA88F89DF834509DF835404945D8
:101B100034BF8B46C3464B4538BF98460AF1FF3366
:101B20009DF836E09BB20193019B924588BF134616
:101B300009FB03F10BEB0103414406EBC30306EB86
:101B4000C101994216D9013903F11000C91A0833AD
:101B500021F00701014453F8040C083303F8105C2A
:101B60004FF0010C03F80F4C03F80EEC994280F88B
:101B700000C0F0D1013292B2BA42D5DB03B0BDE869
:101B8000F08F00BF2DE9F04FA3EB010E85B00FFAE7
:101B90008EFEBDF838909DF83C60A9EB020CBEF1BA
:101BA000000F9DF83D500FFA8CFC9DF83E40C0F2AE
:101BB0008C8014BF01270027BCF1000F48DB14BF45
:101BC0004FF001084FF00008BCF1000F49D18B42E3
:101BD00002D20F4619463B46B0F85CC0476D6145DE
:101BE000B0F85E0002D30CF1FF3189B2824201D31A
:101BF000421E92B20CFB0212634507EBC20202D3F3
:101C00000CF1FF339BB2814502D301381FFA80F9F2
:101C10000CFB093307EBC307974214D9D34302F1F6
:101C2000100108323B4423F007030B4452F8041C14
:101C3000083202F8106C012002F80F5C02F80E4C1A
:101C400093420870F2D105B0BDE8F08F4FF0FF3736
:101C5000A2EB090C4FF0FF380FFA8CFCBCF1000F1F
:101C6000B5D0BEF1000F3FD1914502D217464A468A
:101C7000B946B0F85C70D0F854C0B942B0F85E0014
:101C800001D3791E89B2824201D3421E92B207FB70
:101C90000212BB420CEBC20201D37B1E9BB28145F8
:101CA00080F09A8007FB09390CEBC9099145CAD924
:101CB000F800536801211670557094700244197031
:101CC0004A45F6D305B0BDE8F08FA1EB030EBCF199
:101CD000000F0FFA8EFEB9DB14BF4FF001084FF072
:101CE00000084FF0FF376FE7F4453CDCCEEBCE79D0
:101CF00092464FEA4C0CCEF1000E4FEA490207EB38
:101D00000309494503929ED05246B0F85CB09A460A
:101D1000CDE90145039C00E019468BB25B4593B2C7
:101D200015D2B0F85E90994511D999468BB2029DB3
:101D30000BFB0939436D03F8396003EBC9034FF01E
:101D400001095D70019D9D705B6883F800901EEB3A
:101D50000C0E01D44244A6448A4507EB0103DBD1B3
:101D600005B0BDE8F08FCCEBCC73CCF1000C4FEAA2
:101D70004E0E5B00039309EB08039A423FF463AFF6
:101D8000B0F85CB0CDE90145039C8BB25B4593B2E2
:101D900015D2B0F85EA09A4511D99A468BB2029D31
:101DA0000BFB0A3A436D03F83A6003EBCA034FF0AA
:101DB000010A5D70019D9D705B6883F800A01CEBBB
:101DC0000E0C01D43944A44408EB020391451A4691
:101DD000DBD105B0BDE8F08F01381FFA80F961E76B
:101DE000F0B5002B85B00D461446BDF928602ADBFE
:101DF0000B44002E9FB22BDB2644B6B20B9B22462F
:101E00002946039001933B460094FFF7BBFE0B9BD2
:101E100022463946039801933B460096FFF7B2FEEF
:101E20000B9B39463246039801932B460096FFF7E9
:101E3000A9FE2B463246294603980A9405B0BDE810
:101E4000F040FFF79FBE1944002E2F468DB2D3DA23
:101E5000A31926469CB2D1E72DE9F04F1CB287B0FA
:101E6000002C0194C0F2F6809DF840409B00B0F831
:101E70005CE04FF00008C3F1050303949DF8414076
:101E80001BB204949DF84240029305941446D0E09E
:101E9000B0F85EA0564514D2D0F854900EFB067BE5
:101EA000039B09F83B3009EBCB09049B4FF0010B76
:101EB00089F80130059B89F80230D9F8049089F837
:101EC00000B0A2EB05091FFA89F9CA4510D90EFB2B
:101ED000097A039B476D07F83A3007EBCA07049B62
:101EE0004FF0010A7B70059BBB707F6887F800A0EC
:101EF000A1EB0C07BFB2774525D2B0F85EA05645DE
:101F000010D20EFB067B039B466D06F83B3006EBBA
:101F1000CB06049B4FF0010B7370059BB370766882
:101F200086F800B0CA450ED9466D0EFB0977039BB3
:101F300006F8373006EBC707049B7E687B70059B6D
:101F4000BB70012737706F180CEB0206BFB2B6B238
:101F500077452BD2B0F85EA0564514D2D0F85490F5
:101F60000EFB067B039B09F83B3009EBCB09049B76
:101F70004FF0010B89F80130059B89F80230D9F840
:101F8000049089F800B0544510D20EFB0479039BED
:101F9000476D07F8393007EBC907049B4FF001097B
:101FA0007B70059BBB707F6887F800904F1BBFB2AA
:101FB000774525D2B0F85E904E4510D20EFB067ADA
:101FC000039B466D06F83A3006EBCA06049B4FF0B9
:101FD000010A7370059BB370766886F800A04C45C3
:101FE0000ED2466D0EFB0477039B06F8373006EBE6
:101FF000C707049B7E687B70059BBB700127377009
:10200000029B002B06DD013D029BAEB22DB2A3EB7D
:10201000C60301959BB208F10108019E013C03EB48
:10202000CC030FFA88F50C33A4B2B5421BB202936D
:1020300010DC1FFA88FCBDF804500CEB0107AE1849
:10204000BFB2B6B27745FFF423AFA2EB05091FFA82
:1020500089F94DE707B0BDE8F08F00BF2DE9F04FDB
:102060008DB0B0F85C508B464FF000080492B0F889
:102070005E20406D0392013A029090B29DF8584064
:102080009A009DF859E09DF85AC0C2F105020A91E4
:10209000069501926A1E099092B20591089205FB7D
:1020A00000F20B920A9A9DB2069E1FFA88FA511B03
:1020B000D01A02EB0309089A89B20795039FB1422F
:1020C00028BF1146049AA2EB0A05099AADB2BD4297
:1020D00038BF2A46029D484502FB061205EBC202A4
:1020E00029DC09F101073F1A02EBC70702F8084B88
:1020F000012652F8045CBA4202F807EC02F806CC5A
:102100002E70F3D1049A9244039A1FFA8AFA9245E8
:1021100026D30B9A1144029A02EBC101013001F857
:10212000084B012551F8042C484501F807EC01F84B
:1021300006CC1570F2DD019A002A18DC059A08F128
:1021400001080BF1010B013A43450592019A02EB9C
:10215000C80202F104020192A4DA0DB0BDE8F08FCA
:10216000069A02FB0A11029A02EBC101D6E707990F
:10217000049A0398521A0999059E92B235468242F2
:1021800038BF1146089AB0B21746069A824298BFE5
:1021900038465E4502FB0101029A02EBC10127DCD1
:1021A00001EB0817083701F8084B012651F8042CF9
:1021B000B94201F807EC01F806CC1670F3D1049986
:1021C000079A0A44039992B28A4217D30B9A104491
:1021D000029A02EBC000013500F8084B012150F8CB
:1021E000042C5D4500F807EC00F806CC1170F2DD18
:1021F000019A013BA2EBC30201929FE7069901FB02
:102200000200029A02EBC000E5E700BF2DE9F04FA3
:1022100083B0BDF830800D9E904490454CDDB0F801
:102220005C900B44B0F85EA0476D09F1FF309BB2A3
:1022300080B24B4528BF0346494534BF8B46834691
:1022400000930AF1FF339BB20193019B0098524522
:1022500038BF134609FB03F10BEB0103014407EB05
:10226000C30307EBC101994222D9481E06F1060EAD
:10227000F11CC01A0833C00800EB4004A64411F852
:10228000025C033111F8064C083311F804CC714597
:1022900003F80F5C4FF0010503F80E4C53F80C4C9B
:1022A00003F810CC2570EAD1284400EB4000064426
:1022B000013292B24245C8DB03B0BDE8F08F00BFE7
:1022C0002DE9F04FD0F8DC408BB0D4E900351C8903
:1022D000091B1C6805EBC10635F8313004EB030E11
:1022E000E15CF3780996002B7FD096F90650013B0C
:1022F000B0F8DA400EF1010EB0F85C804FF0000C3F
:102300002544B0F8D840B0F85E70ADB2089402979A
:1023100055FA83F39BB2069396F90530B6782344B9
:1023200008F1FF3405969BB2A4B2434528BF23466B
:102330000493731EDBB2DB0007937B1E9BB20393F7
:10234000436D0193DDE90243A54238BF2B46049C4F
:1023500008FB0343019C04EBC303059C002C3DD008
:10236000079C10341C44083311E00CF1010C4900A7
:1023700076465FFA8CFCC9B2BCF1070F04D916F897
:10238000011B4FF0000CB6460833A34226D00E06C0
:10239000EBD54FF001094F4682B190F8E4B090F8C8
:1023A000E5A090F8E67053F8046C03F808BC03F855
:1023B00007AC03F8067C86F80090D6E790F8E0B00A
:1023C00090F8E1A090F8E29053F8046C03F808BC90
:1023D00003F807AC03F8069C3770C6E7069C6B1C35
:1023E000A5429BB204D01D46ACE7B0F8D8300893A4
:1023F000099B089A1B791A44A0F8D8200BB0BDE8B5
:10240000F08F00BF2DE9F04F0646D0F8DC000C46F7
:10241000174690F8088083B0B6F8DA20C8F10005B6
:102420002378B6F8D810EDB2521B92B2BBB1D0F8F7
:1024300000C025464FF0000BDCF804A0BCF8089063
:10244000A3EB090E15F8013F0AEBCE0E9EF804C06F
:10245000DC441FFA8CFB002BF2D10FFA8BF3D6F879
:10246000E4500195407AA0EB08085FFA88F00090EC
:102470003046FFF727FB217839B13A463046FFF75F
:102480001FFF14F8011F0029F7D103B0BDE8F08F3A
:1024900038B50C46097839B115462A46FFF710FFC2
:1024A00014F8011F0029F8D138BD00BF143001F025
:1024B00065BA00BF38B500F1140504462DED028B56
:1024C000284601F017FA284601F010FA2846B0EE27
:1024D000408A01F0F9F9D0ED007AF8EE677A88EEDB
:1024E000277ABDEC028B84ED0E7A38BD38B500F149
:1024F000140504462DED028B284601F0E9F9284623
:1025000001F0F4F92846B0EE408A01F0DDF9D0ED93
:10251000007AF8EE677A88EE277ABDEC028B84EDBC
:102520000E7A38BD10B540F203338EB000244FF65A
:102530000B7240F20341ADF8083009A80123ADF851
:102540001020ADF824202246ADF80C10009402991A
:1025500007940C94CDE90544CDE90A4401F0A4FBAD
:1025600004A8012322460399009401F09DFB09A8C9
:1025700001F080FC10B901200EB010BD04A801F0DC
:1025800079FCA0420CBF022020460EB010BD00BF57
:102590002DE9F04103239AB0012700240646CDE936
:1025A00014373B4BCDE9104340F20453CDE91647B5
:1025B000ADF84830FFF7B6FFB842054625D00228EF
:1025C00045D040F60132334B0DF12C081894ADF88C
:1025D0002C200B981997CDF84A3000F0E3F810A999
:1025E00006F13C0002F080FC302003224FF07E53C5
:1025F00041460D930E93CDE90B02F26B06F11400E8
:1026000001F02AF91AB0BDE8F0811023214A06A989
:1026100006908DF828300DF12C081F4BCDF84A207C
:1026200007930294CDE91804CDE9080402A801F04B
:1026300093FE0823029A03A94046ADF80C508DF88A
:102640000E40049505930B9400F0ECF8C7E70020CA
:102650000121104B0DF12C083A460094CDF84A3078
:102660004FF60B730C94ADF82C302346CDE91801CE
:1026700040F601314046ADF818100699CDE90D44F9
:1026800001F012FB2146404601F000FCA7E700BF25
:1026900004020404040604030704010B2DE9F047B7
:1026A00004462DED028B82B000294DD0012140F26D
:1026B000011200230091ADF804208DF80630364A4F
:1026C0000127364B04F10409354904F129086260F9
:1026D00040F20272A36040F60663E16004F1250A4D
:1026E000A4F82520A4F82930278284F8277084F8DC
:1026F0002B7003F029FF054603F08CFD6946064662
:1027000050BB4DB304F130008DF8067003F0A4FE09
:10271000072D3CD104F114052046FFF739FF284668
:1027200001F0E4F82846B0EE408A01F0CDF8D0ED93
:10273000007AF8EE677A88EE277A84ED0E7A02B096
:10274000BDEC028BBDE8F08740F2011300918DF8DB
:102750000610ADF80430B2E704F1300003F07CFE5F
:10276000072D11D04946204602F03EF80EB9002D43
:10277000D0D1504601F094FB404601F091FB04F1AA
:10278000120000F079F9C5E7002EF2D1C2E7494600
:10279000204602F029F8BDE70508050905070506EA
:1027A000050A060610B584B003460124ADF80400FE
:1027B00003A8ADF80C30ADF80E4001F071FB2146D6
:1027C00003A801F049FC204603F01CFD002103A8EA
:1027D00001F042FC204603F015FD214603A801F05C
:1027E0003BFC04B010BD00BF10B5C2F3002384B0A1
:1027F0000C46017C8DF80D2043EA4402FA240223A2
:102800008DF80C2003AA009401F03CFE18B10124BD
:10281000204604B010BD04460A2003F0F3FC204615
:1028200004B010BD034670B543F8042B044684B0D1
:1028300007C983E80700A37983B91A210B461E2232
:10284000FA2523742046ADF80C20022303AA009534
:1028500001F018FE28B1012004B070BD1B210B4609
:10286000EDE70A2003F0CEFC4FF4B85200950223A6
:10287000ADF80C20204603AA217C01F003FE0028BD
:10288000E9D10A2003F0BEFC41F202720095022356
:10289000ADF80C20204603AA217C01F0F3FD0028AE
:1028A000D9D10A2003F0AEFC042200950223ADF832
:1028B0000C20204603AA217C01F0E4FD0028CAD1A7
:1028C0000A2003F09FFC062200950223ADF80C209D
:1028D000204603AA217C01F0D5FD0028BBD10A20A7
:1028E00003F090FC41F2082200950223ADF80C2081
:1028F000204603AA217C01F0C5FD0028ABD10A20A7
:10290000064603F07FFC0095022303AA217C2046A3
:10291000ADF80C6001F0B6FD00289CD1304603F004
:1029200071FC009522790C232046002A8DF80C308A
:1029300003AA4FF0020314BF622142218DF80D104B
:10294000217C01F09FFD002885D1304603F05AFC20
:102950002279D4E902310B43DBB20AB943F04003D8
:1029600062790AB143F020030E22FA258DF80D306A
:102970002046009502238DF80C2003AA217C01F04B
:1029800081FD00287FF467AF0A2003F03BFC102292
:1029900000950223ADF80C20204603AA217C01F00B
:1029A00071FD00287FF457AF0A2003F02BFC1221A1
:1029B00000950223ADF80C1003AA217C204601F0FB
:1029C00061FD00287FF447AF0A2003F01BFC0122C1
:1029D00009212046FFF708FF003818BF01203BE718
:1029E000F0B5102387B0234C0122002501260027D3
:1029F00002A920460195CDE902234FF48052CDE98A
:102A000004670AF051FA642004F0DCFB02A94FF4D9
:102A100080522046CDE9046702261027CDE90267DF
:102A20000AF042FA0322102302A92046CDE902232C
:102A300000230422CDE904234FF480520AF034FA33
:102A400040F23223042202A9019310232046CDE94B
:102A50000223019A012305924FF4805204930AF055
:102A600023FA40F6060120460AF03EFA284607B04F
:102A7000F0BD00BF600700241C4B00221C494FF032
:102A8000400C30B5054689B00220596007219A6094
:102A90001A620124DA620A224FF4006EDC600692A8
:102AA0002022CDE9000104200821CDE90201032004
:102AB0001021CDE9040108206946C3E904024FF45E
:102AC000C072181DC3E906C24FF48052C3E909E27F
:102AD0000AF0C0F938B92846FFF782FF003818BF5E
:102AE000012009B030BD204609B030BD5C0700248C
:102AF00040410052614A0021D0B513688EB00A915E
:102B0000002B40F0B9805E4B01214FF683700C24FE
:102B100011600221D3F8D4200026032742F480520A
:102B2000C3F8D420D3F8D42002F480520092009A43
:102B3000D3F8E02042F01002C3F8E020D3F8E02000
:102B400002F010020192019AD3F8E02042F0400214
:102B5000C3F8E020D3F8E02002F040020292029A8B
:102B6000D3F8E02042F00802C3F8E020D3F8E020D8
:102B700002F008020392039AD3F8E02042F4807234
:102B8000C3F8E020D3F8E02002F480720492049AA3
:102B9000D3F8E02042F08002C3F8E020D3F8E02030
:102BA00002F080020592059AD3F8E02042F020025C
:102BB000C3F8E020D3F8E02002F020020692069A43
:102BC000D3F8E02042F00402C3F8E020D3F8E0306C
:102BD0000C9403F0040307930323079A0B93CDE9A6
:102BE000080108A9274805F093FB48F23712022391
:102BF00008A925480C94CDE90823CDE90A6705F01A
:102C000087FB4CF20372022308A920480C94CDE9FB
:102C10000823CDE90A6705F07BFB40F2FF6202233F
:102C200008A91B480C94CDE90823CDE90A6705F0F3
:102C30006FFB4FF60C72022308A916480C94CDE9DD
:102C40000823CDE90A6705F063FB4FF63F02022334
:102C500008A911480C94CDE90823CDE90A6705F0CD
:102C600057FB2022022308A90A480C94CDE90A67E1
:102C7000CDE9082305F04CFB0EB0D0BD5807002469
:102C8000004402580010025800180258000C025864
:102C900000200258001C0258001402582DE9F04F81
:102CA000DFF8108406460D46144608F118002DED95
:102CB000028B89B000AF02F00FFAD8F8183073B366
:102CC000D8F81C30D8F80490002B43690BBF4FF0A4
:102CD000080A4FF0100A4FF0020B4FF0040BB9F145
:102CE000000F2AD0A200EA46012B02F1070222F0CF
:102CF0000702ADEB020D6846ADEB020D694600F030
:102D00003F81022B00F0D680002B6FD02246C847AF
:102D1000D5462437BD46BDEC028BBDE8F08FD8F810
:102D20001C30002BF5D0D8F804904FF0080A4FF073
:102D3000020B4369B9F1000FD4D1FB61D8F8003020
:102D4000BB61002BE5D0D54802F038FA6B46BBF1E9
:102D5000020F786108EE103AFB6900F083816A4641
:102D60005146A2EBC40295466200EA46B2FBFBF272
:102D7000AAEBC40085460AEB8200EE46F861ADEB93
:102D8000010DF8690EEB820CC7F810C0EC46ADEBF4
:102D9000010D00EB8201CCF80400CCF8081001EB27
:102DA00082013869E946CCF80C1000EB8201CCF8BE
:102DB00000A001EB8202C9E900E0C9E90212012B7F
:102DC00000F06483022B00F06C82002B00F0808105
:102DD000620849466046BB69984718EE103A2437A6
:102DE0009D46BD46BDEC028BBDE8F08F002C8DD01A
:102DF0001A46D8ED0C6A9FEDB27A8446331D36F937
:102E000022E00CF1080C07EE90EA33F922E00232DE
:102E1000F8EEE77A944267EE877A67EEA67A4CED91
:102E2000027A07EE90EAF8EEE77A67EE877A67EEC5
:102E3000A67A4CED017AE2D8F9612246C847984E4D
:102E4000D8ED0D6A0020F9692B1D9FED9E7A9FED4C
:102E50009E6ADFED9E5A22E0F4EEC67AF1EE10FA99
:102E6000C0F2C88447F6FE72D1ED017A45F8202001
:102E700066EEA77AF4EEC77AF1EE10FA40F2F0802F
:102E8000F4EEC67AF1EE10FAC0F2D58447F6FE727F
:102E900043F820200230083184427FF639AFD1ED6B
:102EA000007A66EEA77AF4EEC77AF1EE10FAD3D87C
:102EB0003246D9E7002C3FF429AFD8ED0C6A84469E
:102EC0009FED787A0022331D8E4656F822100CF1C1
:102ED000080C07EE901A53F822100232F8EEE77A47
:102EE000944267EE877A67EEA67A4CED027A07EE97
:102EF000901AF8EEE77A67EE877A67EEA67A4CEDDD
:102F0000017AE2D871462246C7F81CE0C847664EEF
:102F1000D8ED0D6A0020F9692B1D9FED6A7A9FEDAF
:102F20006A6ADFF894C120E0F4EEC67AF1EE10FA96
:102F3000C0F279843246D1ED017A45F8202066EE60
:102F4000A77AF4EEC77AF1EE10FA40F28780F4EE39
:102F5000C67AF1EE10FAC0F25E84324643F82020C1
:102F60000230083184427FF6D3AED1ED007A66EEAE
:102F7000A77AF4EEC77AF1EE10FAD5D86246DAE70E
:102F8000002C3FF4C3AED8ED0C6A86469FED477A1D
:102F90004FF0000C331D56F82C200EF1080E82F471
:102FA0000002A2F5000207EE902A53F82C200CF143
:102FB000020CF8EEE77A82F400026445A2F5000202
:102FC00067EE877A67EEA67A4EED027A07EE902AD0
:102FD000F8EEE77A67EE877A67EEA67A4EED017A29
:102FE000D9D8F9612246C847314ED8ED0D6A002084
:102FF000F9692B1D9FED337A9FED336ADFF8BCC072
:103000001FE0F4EEC67AF1EE10FAC0F2FC8332460D
:10301000D1ED017A45F8202066EEA77AF4EEC77A62
:10302000F1EE10FA18D9F4EEC67AF1EE10FAC0F209
:10303000DA83324643F820200230083184427FF69A
:1030400067AED1ED007A66EEA77AF4EEC77AF1EEBC
:1030500010FAD6D86246DBE76246EBE762467DE7C8
:10306000324615E7A100D6466208073121F0070174
:10307000ADEB010DEA46ADEB010D6946ADEB0E0D72
:103080000AEB8200EC46ADEB0E0D01EB8202F8611B
:10309000E946CCE900A0C9E9001290E6B007002497
:1030A0000280FFFF000000300082FF7F000000343C
:1030B00082FF7F0094070024007E00807E0080FF56
:1030C0000000003804FF7FBF04FF7F3F00FEFF4683
:1030D000002C00F0C982BBF1020FD8F8242000F0C8
:1030E000FA827969C7F8049002EB810E5FED0C5A01
:1030F0008A00DCF808100EF104007A611A46DCF848
:103100000C303B61331DD7F810903D61FD69C7E974
:1031100002CB8C46834636F92210D8ED0C7A06EEA7
:10312000101A33F9221006EE901A3EF92210B8EE6A
:10313000C66A07EE101AF8EEE66A3BF92210B8EEFE
:10314000C77A26EE256A66EEA56A27EE257A26EE70
:10315000276A66EEA76A27EE277A07EE901A5108CB
:103160000232F8EEE77A0AEB8100944280ED006AC1
:1031700005EB810067EEA57AC0ED006A0CEB8100DB
:1031800009EB810180ED007A98ED0C7A67EE877A81
:10319000C1ED007ABFD8D7F804903D69D7E902CBDA
:1031A00060466208BB6949469847D8F82C307A696E
:1031B000D8ED0D6A1A441FED3D7A1FED3D6A2B1DB7
:1031C000904602F1040A5FED3F5A0022A84ED9E969
:1031D00000EC51E0F4EEC67AF1EE10FAC0F2C782CC
:1031E00047F6FE7045F822000CEB0100D0ED007AA6
:1031F00066EEA77AF4EEC77AF1EE10FA4BD9F4EE48
:10320000C67AF1EE10FAC0F2BA8247F6FE70BBF150
:10321000020F43F822002BD0D9F808000844D0ED63
:10322000007A66EEA77AF4EEC77AF1EE10FA36D994
:10323000F4EEC67AF1EE10FAC0F2CD8247F6FE70D7
:1032400048F82200D9F80C000144D1ED007A66EE6E
:10325000A77AF4EEC77AF1EE10FA1ED9F4EEC67A28
:10326000F1EE10FAC0F2AF8247F6FE714AF8221072
:10327000023294427FF6B1AD51080EEB8100890015
:10328000D0ED007A66EEA77AF4EEC77AF1EE10FA86
:10329000A0D83046A6E73046B9E73146E6E73046E3
:1032A000CEE7002C00F0E081BBF1020FD8F824300B
:1032B00000F0E1817A69DCF8081003EB820EC7F8B0
:1032C00004909300DFED6B5A0EF1040000227B6145
:1032D000DCF80C303B61331DD7F810903D61FD697F
:1032E000C7E902CB8C46834656F82210D8ED0C7AFB
:1032F00007EE101A53F82210B8EEC76A07EE101A3C
:103300005EF82210F8EEC76A07EE101A26EE256A5C
:103310005BF82210B8EEC77A66EEA56A26EE276A39
:1033200027EE257A66EEA76A27EE277A07EE901A2F
:1033300051080232F8EEE77A0AEB8100944280ED00
:10334000006A05EB810067EEA57AC0ED006A0CEB20
:10335000810009EB810180ED007A98ED0C7A67EE2F
:10336000877AC1ED007ABFD8D7F804903D69D7E9D4
:1033700002CB60466208BB6949469847D8F82C30B2
:103380007A69D8ED0D6A1A449FED3E7A9FED3E6A48
:10339000131D9246DFF8E4C00022FB612B1D364E60
:1033A000D9E9008E4EE0F4EEC67AF1EE10FAC0F2E2
:1033B000FC81304645F822000EEB0100D0ED007A8A
:1033C00066EEA77AF4EEC77AF1EE10FA49D9F4EE78
:1033D000C67AF1EE10FAC0F2EF813046BBF1020F6F
:1033E00043F822002AD0D9F808000844D0ED007A2A
:1033F00066EEA77AF4EEC77AF1EE10FA35D9F4EE5C
:10340000C67AF1EE10FAC0F2C98130464AF82200BD
:10341000D9F80C000144D1ED007A66EEA77AF4EEFB
:10342000C77AF1EE10FA1ED9F4EEC67AF1EE10FA70
:10343000C0F2AD813146F86940F822100232944260
:103440007FF6CBAC510808EB81008900D0ED007A03
:1034500066EEA77AF4EEC77AF1EE10FAA3D86046CA
:10346000A8E76046BAE76146E5E76046CEE700BFF9
:103470000280FFFF000000300082FF7F007E00809E
:103480000000003404FF7FBF04FF7F3F002C00F0EA
:10349000EB807A690021D8F82430C7F8109003EB4C
:1034A000820ED7F81C909300FD610EF104021FED0F
:1034B0000C6A7B61331D154656F821204808D8ED6B
:1034C0000C6ABBF1020F82F40002A2F5000207EEC3
:1034D000902A53F8212082F40002B8EEE77AA2F590
:1034E000000227EE067A07EE902A0AEB8002F8EE39
:1034F000E77A27EE267A67EE867A82ED007A09EB84
:1035000080024FEA800067EEA67AC2ED007A27D0EB
:103510005EF8212082F40002A2F5000207EE902A54
:1035200055F8212082F40002B8EEE77AA2F50002F5
:1035300027EE067A07EE902ADCF80820F8EEE77A04
:10354000024427EE267A67EE867A82ED007A98EDBD
:103550000C7ADCF80C2067EE877A0244C2ED007A20
:1035600002318C42A8D8D7F8109060466208BB6937
:103570004946FD699847D8F82C307A69D8ED0D6A2C
:103580001A441FED407A1FED406A131D9246DFF882
:10359000C4C20022FB612B1DAB4ED9E9008E4EE068
:1035A000F4EEC67AF1EE10FAC0F2C580304645F866
:1035B00022000EEB0100D0ED007A66EEA77AF4EE61
:1035C000C77AF1EE10FA49D9F4EEC67AF1EE10FAA4
:1035D000C0F2BF803046BBF1020F43F822002AD070
:1035E000D9F808000844D0ED007A66EEA77AF4EE28
:1035F000C77AF1EE10FA35D9F4EEC67AF1EE10FA88
:10360000C0F2AE8030464AF82200D9F80C000144DE
:10361000D1ED007A66EEA77AF4EEC77AF1EE10FAF1
:103620001ED9F4EEC67AF1EE10FAC0F28B80314664
:10363000F86940F82210023294427FF6CEAB51086E
:1036400008EB81008900D0ED007A66EEA77AF4EEEF
:10365000C77AF1EE10FAA3D86046A8E76046BAE749
:103660006146E5E76046CEE7224649466046BB69CB
:103670009847FFF7B2BBC7F810B0002298ED0C6A6C
:10368000331DDFED726AD7F81CB0786956F8221046
:1036900007EE901A53F82210B8EEE77A07EE901A68
:1036A00051080232F8EEE77A27EE267A0AEB810E0D
:1036B00094420BEB810167EEA67A27EE067A67EE5D
:1036C000867A8EED007AC1ED007ADFD88300D7F8D4
:1036D00010B07B614DE61A46C7F810B098ED0C6A41
:1036E000331DDFED5B6AD7F81CB0786936F922101C
:1036F00007EE101A33F9221007EE901AB8EEC77AC7
:1037000051080232F8EEE77A27EE267A0AEB810EAC
:1037100094420BEB810167EEA67A27EE067A67EEFC
:10372000867A8EED007AC1ED007ADFD88300D7F873
:1037300010B07B6134E5F0EE675AFEEEE45A15EE08
:10374000900A34E7F0EE675AFEEEE45A15EE901A4E
:103750006EE7F0EE675AFEEEE45A15EE900A3AE78D
:10376000F0EE675AFEEEE45A15EE900A4BE767EE6C
:10377000A57AFDEEE77A17EE900A00B232E567EE21
:10378000A57AFDEEE77A17EE900A00B23FE5F0EE7B
:10379000675AFEEEE05A15EE901A4CE6F0EE675AC4
:1037A000FEEEE05A15EE900A30E6F0EE675AFEEEB5
:1037B000E05A15EE900AFDE5F0EE675AFEEEE05A8B
:1037C00015EE900A0AE667EEA57AFDEEE77A17EEA7
:1037D000901A09B24AE567EEA57AFDEEE77A17EE90
:1037E000900A00B22CE5F0EE675AFEEEE45A15EEB0
:1037F000902A1FE467EEA57AFDEEE77A17EE902A8D
:1038000012B2FFF731BBF0EE675AFEEEE45A15EE46
:10381000902AFFF7FDBBF0EE675AFEEEE05A15EE78
:10382000902AFFF79BBBF0EE675AFEEEE05A15EECA
:10383000902AFFF780BB67EEA57AFDEEE77A17EED8
:10384000902A12B2FFF724BB82FF7F0000000030F5
:10385000000000387E0080FF30B5184C154685B05A
:10386000046004F1080EEC460FC98EE80F00D4ED99
:10387000047AF5EEC07A8CE80F00F1EE10FA1ADD4A
:10388000B7EE006A94ED057A27EE277AC6EE276A2E
:1038900084ED0D7AC4ED0C6A6DB1204640F8185FD6
:1038A00001F01AFC064903690020064A2162A2625F
:1038B000E36005B030BD012005B030BD94070024A1
:1038C000705C0030703C003000680830704700BF0A
:1038D000B1F5807F03680A4628BF4FF48072B1F5C6
:1038E000807F9A6094BF00200120704700681830E4
:1038F00001F052BC70B504688AB0A369E160CBB135
:1039000004F11805284601F0E7FB8446EE46E66818
:10391000BCE80F00AEE80F00BCE80F00AEE80F00F7
:103920009CE803008EE8030069462846049601F0EF
:10393000DBFAF8B9E069D8B104F11C05284601F0BA
:10394000CBFB8446EE46E468BCE80F00AEE80F000F
:10395000BCE80F00AEE80F009CE803008EE803000F
:1039600069462846049401F0BFFA003818BF0120C8
:103970000AB070BD01200AB070BD00BF30B5046848
:1039800083B00D46E3694BB1A3680020E26A616A27
:103990009B00009004F11C0001F0A0FBA368074805
:1039A000A26A9B00216A009004F1180001F096FBC6
:1039B0000020C4E9005003B030BD00BF9D2C0008BA
:1039C00010B4074B4FF07E513024002203201961C0
:1039D0009C60D8605DF8044B5961C3E906227047CA
:1039E00094070024704700BFF8B5134F3C687F2C44
:1039F00007D98023114A42F224411C463B60A2F8B9
:103A00007E100F4D2B68012B0AD90C4E0D4D22460E
:103A10003146284600F02CF90028F8D13860F8BD6E
:103A200022460649074800F023F90028F7D12B6801
:103A3000386001332B60F8BDD0070024D407002480
:103A4000CC0700245408002430B4154C2168F1B18F
:103A50004B1E144DE81810F801298C4619460A2A05
:103A600001D00D2A02D14BB1013BF4E70CF1020366
:103A70007F2B10D98023236030BC704701220223A2
:103A800023600D200A236854AB5430BC70470122D8
:103A90000223044DF4E70CF101026146F0E700BF98
:103AA000D0070024D407002410B5094C02460B4669
:103AB000084821680844C1F180010FF055FB2368D4
:103AC00018442060FFF7C0FFFFF78EFF10BD00BF56
:103AD000D0070024D40700240FB400B583B004A994
:103AE00051F8040B0191FFF7DFFF03B05DF804EB21
:103AF00004B0704710B5044600210A4800F032F8BF
:103B0000002C094B14BF0222002208481A60FFF75C
:103B1000E3FF0748FFF7E0FF0A20BDE8104002F08E
:103B200071BB00BF54080024CC07002490DD0108BD
:103B3000A0DD0108064A0749074808B50FF076F9E5
:103B4000034A04490548BDE808400FF06FB900BFBB
:103B500000000024E5390008540800245808002417
:103B6000704700BF012910B506D0022915D051B108
:103B7000BDE8104006F0AEBA0A46344834490BF0AE
:103B800065FBE8B1FEE7334B0A46334C3349344812
:103B90001C600BF05BFB68B1FEE701222C492B484F
:103BA0000BF054FB00B1FEE72E4928480BF070FBE8
:103BB000C0B1FEE72B492A480BF06AFB60B1FEE773
:103BC000284922480BF064FB00B1FEE726491F4854
:103BD0000BF0ECFA08B3FEE7244921480BF0E6FAB3
:103BE000A8B1FEE7204919480BF0E0FA00B1FEE762
:103BF00016480BF063FB024640B9164B164C1749AA
:103C000017481C600BF022FB68B1FEE7FEE7144882
:103C10000BF054FB0028ABD0FEE70C480BF04EFB3A
:103C20000028A5D0FEE70F490D480BF031FB00B18D
:103C3000FEE70E490A480BF0B9FA00B1FEE7084862
:103C40000BF03CFB002893D0FEE700BFF80A0024ED
:103C5000D0010024940D0024613B0008B40100242D
:103C60005C0800243802002494010024840100240C
:103C7000084691B208B502F0A1FD003818BF012036
:103C800008BD00BF014805F003BD00BF6840002427
:103C9000014805F0FDBC00BF68400024014805F064
:103CA000F7BC00BF6840002410B592B0ADF8041016
:103CB0000180C9B2149C0B29C460C0E901233FD024
:103CC00090F801C0BCF10F0F3AD8022A3FD0032A66
:103CD00002D0012A00D000220E92012B02D0022B2A
:103CE00018BF0023022C0F932CD0032C2AD0012CB8
:103CF00028D000230A29109327D85C4A02EB81229E
:103D000002610A2914D8DFE801F0A39587796B5D79
:103D10004F4133250600564BD3F8E01041F4806143
:103D2000C3F8E010D3F8E03003F480630C930C9BED
:103D300001230DA9104603FA0CF30D9304F0E8FAE1
:103D400012B010BD0A291094D7D90022D8E7112249
:103D50000E92C2E7464BD3F8E01041F40071C3F86D
:103D6000E010D3F8E03003F400730B930B9BDFE714
:103D70003F4BD3F8E01041F48071C3F8E010D3F862
:103D8000E03003F480730A930A9BD1E7384BD3F8F1
:103D9000E01041F08001C3F8E010D3F8E03003F008
:103DA00080030993099BC3E7314BD3F8E01041F03E
:103DB0004001C3F8E010D3F8E03003F0400308936B
:103DC000089BB5E72A4BD3F8E01041F02001C3F877
:103DD000E010D3F8E03003F020030793079BA7E738
:103DE000234BD3F8E01041F01001C3F8E010D3F8F2
:103DF000E03003F010030693069B99E71C4BD3F8C1
:103E0000E01041F00801C3F8E010D3F8E03003F00F
:103E100008030593059B8BE7154BD3F8E01041F0A1
:103E20000401C3F8E010D3F8E03003F00403049376
:103E3000049B7DE70E4BD3F8E01041F00201C3F87C
:103E4000E010D3F8E03003F002030393039B6FE725
:103E5000074BD3F8E01041F00101C3F8E010D3F8AC
:103E6000E03003F001030293029B61E70000025877
:103E70000044025808B5012143780069994089B28D
:103E800004F04EFC003818BF012008BD01230A468B
:103E90004178006903FA01F189B204F047BC00BF20
:103EA0008378022B30B504468FB037D0032B33D044
:103EB000012B31D000230A93E378012B2AD0022B67
:103EC00028D000230B93002320460C9303F058F8CE
:103ED0000546204603F05CF823780990082B13D898
:103EE000DFE803F01F3245586B7E91A40500594B63
:103EF000D3F8E02042F48072C3F8E020D3F8E03039
:103F000003F480730893089B09A9284604F000FA7B
:103F10000FB030BD0B93D6E70A93CDE711230A9378
:103F2000CAE74C4B09A92846D3F8E02042F0010229
:103F3000C3F8E020D3F8E03003F001030093009BC6
:103F400004F0E6F90FB030BD424B09A92846D3F87A
:103F5000E02042F00202C3F8E020D3F8E03003F0A2
:103F600002030193019B04F0D3F90FB030BD394B2C
:103F700009A92846D3F8E02042F00402C3F8E02063
:103F8000D3F8E03003F004030293029B04F0C0F97D
:103F90000FB030BD2F4B09A92846D3F8E02042F0DE
:103FA0000802C3F8E020D3F8E03003F008030393DD
:103FB000039B04F0ADF90FB030BD264B09A928468C
:103FC000D3F8E02042F01002C3F8E020D3F8E0304C
:103FD00003F010030493049B04F09AF90FB030BD72
:103FE0001C4B09A92846D3F8E02042F02002C3F870
:103FF000E020D3F8E03003F020030593059B04F0A4
:1040000087F90FB030BD134B09A92846D3F8E0203B
:1040100042F04002C3F8E020D3F8E03003F0400360
:104020000693069B04F074F90FB030BD094B09A943
:104030002846D3F8E02042F08002C3F8E020D3F80D
:10404000E03003F080030793079B04F061F90FB0A1
:1040500030BD00BF0044025870B506460D4602F060
:104060008FFF0446304602F093FF2A1E0146204689
:1040700018BF0122BDE8704004F058BB0023122293
:1040800070B586B0CDE9022304930368032B01D8F1
:1040900004230593061D841D304602F071FF05467A
:1040A000304602F075FF034601A92846019304F04B
:1040B0002FF9204602F064FF034620461C4602F01A
:1040C00067FF01A903462046019304F021F906B0D9
:1040D00070BD00BF634A0368934210B58CB028D00E
:1040E000614A934258D0614A934200F09480604AFA
:1040F000934201D00CB010BD5E4C5F48D4F8E03064
:1041000043F00203C4F8E030D4F8E03003F00203D7
:104110000A930A9BFFF7B2FFD4F8F43043F0800310
:10412000C4F8F430D4F8F43003F080030B930B9B05
:10413000E0E7504C5148D4F8E03043F00203C4F8B3
:10414000E030D4F8E03003F002030193019BFFF765
:1041500095FFD4F8E83000221F2043F400131146E5
:10416000C4F8E830D4F8E83003F400130293029B5B
:10417000D4F8D83043F00103C4F8D830D4F8D8309C
:1041800003F001030393039B03F046F81F200CB0D8
:10419000BDE8104003F07EB8364C3948D4F8E03022
:1041A00043F08003C4F8E030D4F8E03003F080033B
:1041B0000493049BD4F8E03043F00203C4F8E030E9
:1041C000D4F8E03003F002030593059BFFF756FF98
:1041D000D4F8E8300022212043F480031146C4F8CB
:1041E000E830D4F8E83003F480030693069BD4F853
:1041F000D83043F00103C4F8D830D4F8D83003F0F5
:1042000001030793079B03F007F821200CB0BDE8DA
:10421000104003F03FB81B48FFF730FF154B00225A
:104220004820D3F8E840114644F40004C3F8E840BD
:10423000D3F8E84004F400040894089CD3F8D8406C
:1042400044F00104C3F8D840D3F8D83003F0010398
:104250000993099B02F0E0FF48200CB0BDE8104034
:1042600003F018B80054004000580040005C0040C3
:10427000001C005800440258241000249C0D002407
:10428000740E00244C0F00242DE9F0431A4B87B024
:1042900000254FF010099E46EC46184BFF22E046E1
:1042A00067461A700EF118060EF13004CDE900557C
:1042B000CDE90255ADF80090BCE80F00CDE90455FA
:1042C000AEE80F009CE803000095ADF800908EE882
:1042D0000300B8E80F000FC69CE803000095ADF896
:1042E000009086E803000FCF0FC49CE8030084E829
:1042F000030007B0BDE8F08304000024990D0024FA
:1043000010B5EFF3108472B6084B1A78120602D576
:1043100004B962B610BD1B78D82205485BB202FB17
:104320000300143003F0A2FCF2E700BF990D002453
:104330009C0D0024014805F091B800BF280E002410
:10434000014805F08BB800BF000F0024014805F0BC
:1043500085B800BFD80F00242DE9F0430F68D8249A
:104360003F4D85B007FB04F4032F05EB0403036006
:1043700040DCCB680E46012B3CD84DD04FF0D8081E
:10438000B646DFF8FC9008FB0758BEE80F00C446AD
:10439000ACE80F00DEF800300DF1100ECCF8003064
:1043A000D8F808C099E80F000EE90F000EEB87035C
:1043B000BCF1010F53F8103CC8F88C3031D0BCF17F
:1043C000020F42D0BCF1000F35D0317C8C34D823A1
:1043D000002201202C4403FB07534900C3E92602B5
:1043E000C3F894102046C3E92822C3E92A2204F026
:1043F00027FE18B1012005B0BDE8F0830146204634
:1044000005F038F80028F5D10146204605F05CF8A3
:10441000003818BF0120EEE70B7C103B672BADD9AD
:10442000E8E702F08FF80F4B98420CBF0E4B0F4B92
:10443000C8F89030C9E702F085F80A4B98420CBFE3
:104440000B4B0C4BC8F89030BFE702F07BF8054BE4
:1044500098420CBF084B094BC8F89030B5E700BF35
:104460009C0D0024000E27072D0FB0303211D020F4
:104470005F4390608A62E030200BA0101A09801020
:10448000EC4201082DE9F041D0F8008082B00D46E1
:1044900017461E4608F18C04204604F0E7FF20284A
:1044A000FAD1D8F80C3073B96D002046089C334619
:1044B0003A46A9B2009404F019FE003818BF012052
:1044C00002B0BDE8F081089B32463946204604F030
:1044D000E1FEF2E7044B10221A7483F8E82083F817
:1044E000C02183F8982270479C0D002430B500232A
:1044F00095B04FF48071062204460B9306921393F5
:10450000CDE90C13CDE90E33CDE9113302F01CF8DF
:1045100007282BD004F1100541F2883206A928465D
:1045200005F024FF28B10123184684F85C3015B04B
:1045300030BD0222022306A92846CDE9002310221D
:104540000123CDE9022300224FF48003CDE90423A7
:1045500005224FF0807306926A460F9341F288332A
:1045600006F070F80028DED115B030BD032301201D
:1045700084F85C3015B030BD70B50023A4B04FF0A6
:1045800080724FF480750446ADF806300D93CDE986
:1045900010320122CDE90E53CDE91223CDE91433B7
:1045A000002943D0F02300F1100508AEADF8063025
:1045B000C02341F2883231462846089305F0D6FEE2
:1045C00028B10123184684F85C3024B070BD41F254
:1045D00088320DF10601284605F032FF0346002817
:1045E000EFD105224FF480711E93284616924FF0AA
:1045F00080721B9321931F9202AA9FED1F7BCDE92E
:104600001C13CDE922338DED027B9FED1D7B41F222
:10461000883316A98DED047B9FED1B7B8DED067B0A
:1046200006F010F80028CCD124B070BD00F11005C0
:1046300008AE612341F2883231462846089305F0DE
:1046400095FE0028BDD141F288320DF106012846C1
:1046500005F074FF0028B4D1BDF80630204623F0E1
:10466000780343F04003ADF80630FFF73FFF002822
:104670009ED0A6E7AFF3008000000000010000001C
:1046800010000000010000000000000000004000D9
:104690002DE9F04F00234FF4807501264FF080780C
:1046A00004462DED028BABB08DF8073013932193A8
:1046B000299314950E96CDF85C80CDE91533CDE99C
:1046C0001863CDE91A33CDE92253CDE92433CDE97E
:1046D000273306231C9301F037FF072808D004F185
:1046E000100741F288321CA9384605F03FFE40B160
:1046F0000123184684F85C302BB0BDEC028BBDE87A
:10470000F08F4FF0020A4FF0020B4FF0050941F213
:10471000883308AA1CA93846CDF89480CDF870904B
:104720009FED2D8BCDE908AB4FF0000A4FF4800BC5
:104730008DED0A8BCDE90CAB05F084FF0028D7D1B5
:1047400041F2883238460EA905F010FE0028CFD17C
:10475000402341F288320DF1070138468DF80730C9
:1047600005F06EFE0028C3D141F288330EA902AADB
:104770003846CDF83890CDF85C809FED197B8DEDF3
:10478000048BCDE906AB8DED027B05F05BFF0346A4
:104790000028ADD1CDF870904FF00109CDF894808C
:1047A0004FF00008219308AA29931CA938462295A6
:1047B000CDE92333CDE9273341F288338DED0A8BE0
:1047C000CDE90CABCDE9088905F03CFF002893D07A
:1047D000304684F85C608FE71000000001000000A4
:1047E00040000000400000002DE9F043624CA3B0FF
:1047F0000D46046001F0A8FE072800F0A980286893
:1048000023466968AA6807C31E46AB8926F8043B9D
:104810003046257B677B05F08BFDE0B9574B012DBA
:104820004FF00108E061236114BF4FF480134FF48F
:104830000003C4E9058893FAA3F3B3FA83F34FF4B2
:104840008079013BC4F82490C4E90B003046236210
:1048500005F002FD38B10122134684F85C201846A9
:1048600023B0BDE8F08366230B90139041F28832A9
:1048700006A90693CDE90C90CDE90E00CDE9110013
:10488000304605F073FD0028E5D1992341F28832C6
:1048900006A93046069305F069FD0028DBD1052303
:1048A0001C9019906A4614934FF08073219014A9BC
:1048B0001D9341F288339FED2A7BCDE91A90CDE913
:1048C0001F008DED007B9FED287B30468DED027B38
:1048D0009FED277B8DED047B05F0B4FE0028BAD157
:1048E00029462046FFF748FE0028B4D12046FFF7AE
:1048F000CFFE03460028AED1002FB0D1189330462A
:104900000027002606AA14A9CDF86890CDE91F3328
:10491000EB2314934FF440631B934FF4005317930E
:104920004FF440431C93A0231693062319934FF092
:10493000805321934FF04073CDE906671D9305F036
:10494000F9FE034600288AD0434684F85C8086E757
:1049500001230322184684F85C2023B0BDE8F083CD
:104960000000000001000000100000000100000035
:104970000000000000004000FC1000240050005225
:104980002DE9F04F8FB0414B0024026800AF9A42EE
:104990007C63C7E90944C7E90B4403D03C37BD46F3
:1049A000BDE8F08F3A4B40F609213A48EB46D3F880
:1049B000D42007F11C0607F1220A4FF0020942F445
:1049C00080424FF00308C3F8D420D3F8D42002F477
:1049D0008042BA60BA68D3F8E02042F04002C3F8DF
:1049E000E020D3F8E02002F04002FA60FA68D3F841
:1049F000E02042F02002C3F8E020D3F8E02002F0EB
:104A000020023A613A69D3F8E02042F01002C3F87C
:104A1000E020D3F8E02002F010027A617A69D3F83E
:104A2000E02042F00202C3F8E020D3F8E030F86161
:104A300003F002033984BB61174B7B60BB697B6861
:104A400053F8040F7B6002F09BFA7B6805461868F8
:104A500002F09EFA16F8013B786207F1240128461D
:104A6000C7F830807B63C7E90A9403F051FC5645D0
:104A7000E5D100225C20114602F0CEFB5C2002F062
:104A800009FC3C37DD46BD46BDE8F08F00500052C2
:104A9000004402580A0A090958110024114B0268FF
:104AA0009A4200D07047104A70B5D2F8D4300F4CFB
:104AB00023F4804304F11806C2F8D43054F8040FEC
:104AC00002F05EFA0546206802F062FA01462846C6
:104AD00003F05EFDB442F1D15C20BDE8704002F00D
:104AE000E7BB00BF00500052004402585811002498
:104AF000014805F0ABBE00BF0C110024084B1A1D85
:104B0000981D03F1080110B49C1C9A6603F10A0277
:104B1000C3E91834C3E91B015DF8044B5A677047B9
:104B2000FC10002438B5036871B9026A00F1280549
:104B300000F5AC74012A0CBF002140218BBB1D4B3A
:104B40005722C0F858310DE0426A00F1C00500F567
:104B5000E874012A0CBF00214021EBB1164B5A2208
:104B6000C0F8D03100232046C4E901214FF480521F
:104B70004FF48061636262614FF48042C4E90331A3
:104B80004FF48073C4E906234FF40033236202F02C
:104B9000F5FC58B1FFBEFEE7084B5822C0F8D031F3
:104BA000E0E7074B5922C0F85831DBE7C5E920445C
:104BB000A56338BD1000024070000240280002408A
:104BC000580002402DE9F043821D05468BB0031DBD
:104BD00005F10A010830CDE9052305F10C02AB69A6
:104BE000CDE907010992002B3DD0EB69B3FA83F8B8
:104BF0004FEA58180123022205AE0AAF4FF006090A
:104C00000393CDE9012356F8044B2B792278934284
:104C100016D02B68F3B1012B02D1F2B10A23049311
:104C2000204602F0B5F903462046009302F0A8F9A9
:104C3000694603F06DFBBE42E5D10BB0BDE8F083E1
:104C4000697963789942E4D1B8F1000FF3D02B6809
:104C5000002BE0D1CDF81090E2E76378022B14BF6F
:104C60000A230823DBE74FF00108C3E7534A036830
:104C7000934230B505468BB055D02032934252D086
:104C80004F4A934204D02032934201D00BB030BD42
:104C90004C4C4D48D4F8E03043F00103C4F8E03008
:104CA000D4F8E03003F001030593059BD4F8E0301D
:104CB00043F00803C4F8E030D4F8E03003F0080310
:104CC0000693069BD4F8E03043F04003C4F8E0308C
:104CD000D4F8E03003F040030793079BD4F8F0309A
:104CE00043F40003C4F8F030D4F8F03003F40003C8
:104CF0000893089BFFF766FFD4F8D830296843F083
:104D000001032F4A3048C4F8D830891AD4F8D83073
:104D100018BF012103F001030993099B0BB0BDE803
:104D20003040FFF7FFBE274C2848D4F8E03043F06E
:104D30000103C4F8E030D4F8E03003F0010300933D
:104D4000009BD4F8E03043F01003C4F8E030D4F80E
:104D5000E03003F010030193019BD4F8E03043F0FE
:104D60004003C4F8E030D4F8E03003F0400302938D
:104D7000029BD4F8F03043F48003C4F8F030D4F848
:104D8000F03003F480030393039BFFF71BFFD4F879
:104D9000D830296843F00103084A0C48C4F8D830D9
:104DA000891AD4F8D83018BF012103F00103049305
:104DB000049B0BB0BDE83040FFF7B4BE045801407F
:104DC000045C014000440258D013002474110024F4
:104DD000014802F04BBF00BFCC120024014802F092
:104DE00045BF00BF44130024014802F03FBF00BF8D
:104DF00028150024014802F039BF00BFA015002487
:104E00001A4A0368934210B40BD02032934208D060
:104E1000174A934216D02032934213D05DF8044BC8
:104E20007047144B0022D3F85442C3F85822002C88
:104E3000F4D0D3F84802D3E9931223465DF8044B2B
:104E4000520818470B4B0022D3F8B044C3F8B424DF
:104E5000002CE3D0D3F8AC24D3F8A814D3F8A404DE
:104E6000520823465DF8044B184700BF0458014020
:104E7000045C014074110024184A0368934210B482
:104E80000BD02032934208D0154A934217D02032DB
:104E9000934214D05DF8044B7047124BD3E994242D
:104EA0005208C3F85822002CF4D0D3E992012346CB
:104EB00001EB820100EB82005DF8044B1847094BBF
:104EC000D3F8AC24D3F8B0445208C3F8B424002C6F
:104ED000E0D0D3F8A814D3F8A404E8E704580140BC
:104EE000045C0140741100242DE9F04F0C684FF46C
:104EF0001776754F87B004FB06F6012C07EB060A00
:104F0000C0F800A000F3A0800D468E464FF00008C8
:104F1000D44669A3D3E9002369A1D1E90001CDE911
:104F2000022306ABCAF8508203EB8403CDE90401E7
:104F300053F810BC53F8083CCAE992880193BEE8C4
:104F40000F00ACE80F00BEE80F00ACE80F00019BBB
:104F50009EE80300CAF828B0CAF8C0308CE8030005
:104F60002B69042B0CD8DFE803F0737D87910300D5
:104F70004FF41773554A03FB04739A64C3F8E02097
:104F8000AA692B6A002A43D0002B4FF4177308BF7D
:104F9000022203FB047318BF0322DA6201221A63A0
:104FA000EA696B6A002A40D1191E4FF4177318BFC3
:104FB000012103FB0473C3E931126B69022B05D88D
:104FC000434A12F80380434A52F823904FF4177370
:104FD00006F128004246494603FB04740023384486
:104FE00063646363E365C4F8DC30C4F8CC30C4F8B0
:104FF000F430C4E90F33C4E91533C4E93533C4E9E7
:105000003B33022307F0C4FC002849D0FFBEFEE773
:10501000191E4FF4177318BF012103FB0473C3E972
:105020000B12EA696B6A002ABED0002B4FF417738B
:1050300008BF022203FB047318BF0322C3F8C42075
:105040000122C3F8C820B8E7012007B0BDE8F08FFF
:105050004FF417734FF4FA5203FB04739A64C3F8C6
:10506000E0208DE74FF417734FF47A5203FB04737B
:105070009A64C3F8E02083E74FF417734FF4FA42C1
:1050800003FB04739A64C3F8E02079E74FF41773C5
:105090004BF6803203FB04739A64C3F8E0206FE799
:1050A00006F1C000022342464946384407F070FC2E
:1050B0000028CAD0FFBEFEE704580140045C01404E
:1050C00024580140245C0140741100240077010041
:1050D000B0DD0108B4DD01080068704770B50468F0
:1050E00082B015460E46C4F85032C4E99212069AB0
:1050F000C4F85422A269012A26D0626A012A9AB20F
:1051000011D0294604F1C000019207F0FDFC236A8A
:10511000019A012B10D0294604F1280007F0F4FC75
:10512000002002B070BD04F1C000019207F07EFDC6
:10513000236A019A012BEED1314604F1280007F0D1
:1051400075FD002002B070BD226A012A9AB211D00A
:10515000294604F12800019207F0D6FC636A019AFF
:10516000012B10D0294604F1C00007F0CDFC00202F
:1051700002B070BD04F12800019207F057FD636A88
:10518000019A012BEED1314604F1C00007F04EFD2B
:10519000002002B070BD00BF03681B69042B05D856
:1051A000044A02EB830393ED000A70479FED020A65
:1051B000704700BFC0DD010800803B470368D3F89B
:1051C0005802704770B5002304464FF480620421F2
:1051D0004FF440353448C4F83821C4F8D410C4F82A
:1051E0003431C4F84C113149C4F8B000C4F8281166
:1051F000C4E92F32C4E93133C4E93335C4E9373364
:10520000C4E94F33C4E95135C4E95533A2680323D7
:10521000C4F8D830C4F85031042A0AD8DFE802F0C4
:105220001F262D34030055225623C4F8B420C4F899
:105230002C310022402304F1B005C4F8B8202846E0
:10524000C4F8303102F09AF908B1FFBEFEE704F568
:105250009476304602F092F9E8B1FFBEFEE72522CF
:105260002623C4F8B420C4F82C31E2E727222823EF
:10527000C4F8B420C4F82C31DBE73D223E23C4F847
:10528000B420C4F82C31D4E753225423C4F8B420FA
:10529000C4F82C31CDE704F12803C4E92865C4F82B
:1052A000E830C4F8603170BD400402405804024048
:1052B0002DE9F04F814683B00E4617461D4600F19A
:1052C0002804204608F046FD01288246F9D14846C8
:1052D000FFF778FF8046002835D1EFF31083019364
:1052E00072B6DFF888B00C9B99F90820DFF880A02F
:1052F000DFF88090CBF800300D9B89F80020CAF8C9
:1053000000300DB11846A847BAB23146204608F021
:1053100097F830B9019B03B962B6404603B0BDE8C7
:10532000F08F0023CBF80030CAF80030FF2389F853
:1053300000300C9B8BB101210D9888469847019B4A
:10534000002BEAD1E8E70C9B53B1D0460D985146AB
:105350009847404603B0BDE8F08F4FF00108D9E709
:10536000D046404603B0BDE8F08F00BF4C2000247B
:1053700054200024502000242DE9F04F814683B0B2
:105380000E4617461D4600F12804204608F0E2FCB0
:1053900001288246F9D14846FFF714FF80460028CD
:1053A00035D1EFF31083019372B6DFF888B00C9B10
:1053B00099F90820DFF880A0DFF88090CBF8003062
:1053C0000D9B89F80020CAF800300DB11846A84797
:1053D000BAB23146204608F0F7F930B9019B03B95B
:1053E00062B6404603B0BDE8F08F0023CBF8003032
:1053F000CAF80030FF2389F800300C9B8BB10121E3
:105400000D9888469847019B002BEAD1E8E70C9B52
:1054100053B1D0460D9851469847404603B0BDE879
:10542000F08F4FF00108D9E7D046404603B0BDE801
:10543000F08F00BF4C200024542000245020002472
:105440002DE9F04F814683B00F461646984600F18D
:105450002804204608F07EFC0128FAD182464846FE
:10546000FFF7B0FE0546002838D1EFF31083019313
:1054700072B699F90830DFF88890DFF888B089F8BB
:1054800000300D9BDFF880A0CBF800300E9BCAF8EF
:1054900000300C9B0BB10E9898471FFA88F33A46E0
:1054A0003146204608F084F830B9019B03B962B652
:1054B000284603B0BDE8F08F0023CBF80030CAF8CF
:1054C0000030FF2389F800300D9B8BB101210E982D
:1054D0000D469847019B002BEAD1E8E70D9B4BB1A5
:1054E00055460E9851469847284603B0BDE8F08FC0
:1054F0000125DAE75546284603B0BDE8F08F00BF26
:10550000502000244C200024542000242DE9F04396
:10551000002387B00222044605690493CDE90223E3
:10552000D0E902128E00FAB1022D7AD02178B5FAB4
:1055300085F54FF00108276A0B294FEA551521D14F
:10554000A2780B2A02D0B8F1000F38D123790B2BA7
:1055500001D0002D6CD1A37917B10B2B40F09980AD
:10556000002007B0BDE8F08335F002032178276AF8
:105570000CBF4FF001084FF00008023D18BF012595
:105580000B29DDD07D4B94F801C053F8262010780C
:105590000B2802D0884200F0AD80D378D01C99420D
:1055A00002D10B2B40F0BD809379901D8B4202D12C
:1055B0000B2B40F0BC80012007B0BDE8F083711CCC
:1055C0006E4BE07853F8213019780B2902D08A42CB
:1055D00000F0B580D97803F1030C0B2902D08A4280
:1055E00000F0BB80997903F1060C0B29E3D08A42C5
:1055F000E1D1DB798342DED1634604F102099B7875
:105600004846059301F0BCFC8046484601F0C0FCCA
:1056100001A90190404602F07BFE23790B2B98D123
:1056200099E70178076A0B2940F0868001258DE70C
:10563000B11C524A607952F8212011780B2902D00E
:105640008B4200F08180D178D51C0B2902D08B428F
:1056500000F08D809179951D8B42ACD10B29AAD099
:10566000D3798342A7D12A46251D937828460593EE
:1056700001F086FC034628461D4601F089FC01A97D
:105680000190284602F044FEA379002F7FF465AF15
:1056900066E7F11C394AE07952F8212011780B298C
:1056A00001D08B425FD0D178D51C0B2901D08B4221
:1056B0004FD09179951D8B427FF47DAF0B293FF43C
:1056C0007AAFD37983427FF476AF2A46A51D9378CB
:1056D0002846059301F054FC0446284601F058FC86
:1056E000034601A92046019302F012FE002007B0F4
:1056F000BDE8F083537863457FF44FAF937820463D
:10570000059301F03DFC8146204601F041FC01A9D2
:105710000190484602F0FCFDA2780B2A7FF413AFFB
:1057200014E7137963457FF43FAF0246E6E7D37988
:1057300063457FF440AFF8E79846012522E75978A2
:1057400081427FF447AF58E7517881427FF47BAFC5
:105750008AE711798142ACD1B7E7197981427FF4A8
:1057600041AF634649E7517881429CD1AEE7117958
:1057700081427FF46FAF2A4676E700BFFCDD010867
:10578000654A0368934200F0B980A2F578429342DB
:1057900000F0B68002F58062934200F0B38002F51B
:1057A0007842934200F0B08002F5E052934200F05C
:1057B000AD805A4A934240F0AB8005234FF4D0713C
:1057C000574A01FB03F310B5D418D05C86B001F042
:1057D000E7FBA07801F0E4FB207901F0E1FBA07980
:1057E00001F0DEFBA368052B11D8DFE803F0192FC9
:1057F000455B71034B4BD3F8F42042F02002C3F811
:10580000F420D3F8F43003F020030593059B2046E1
:10581000FFF77CFE012801D006B010BDFFBEFEE7F9
:10582000404B00222320D3F8F01041F48051C3F8FC
:10583000F0101146D3F8F03003F480530093009B2E
:1058400001F0EAFC232001F025FDE0E7354B0022C2
:105850002420D3F8E81041F48041C3F8E810114641
:10586000D3F8E83003F480430193019B01F0D4FCAA
:10587000242001F00FFDCAE72A4B00223320D3F881
:10588000E81041F40041C3F8E8101146D3F8E830BD
:1058900003F400430293029B01F0BEFC332001F0AD
:1058A000F9FCB4E71F4B00225420D3F8F01041F468
:1058B0000051C3F8F0101146D3F8F03003F4005350
:1058C0000393039B01F0A8FC542001F0E3FC9EE746
:1058D000144B00225520D3F8F01041F48011C3F886
:1058E000F0101146D3F8F03003F480130493049BB6
:1058F00001F092FC552001F0CDFC88E700235DE724
:1059000001235BE7022359E7032357E7042355E705
:1059100000231B78FFDE00BF003001400014005858
:105920002C160024004402582DE9F043002289B0CF
:105930001B4B01210DF1040C9E461A4B0791E146C9
:10594000E04667460EF11C060EF138050EF15404D0
:10595000CDE90122CDE90322CDE90522FF221A700B
:10596000BCE80F00AEE80F009CE807008EE80700D7
:10597000B9E80F000FC69CE8070086E80700B8E802
:105980000F000FC59CE8070085E807000FCF0FC484
:105990009CE8070084E8070009B0BDE8F08300BF79
:1059A0000C01002450200024014808F0A7B800BFD3
:1059B00054160024014808F0A1B800BFF4170024D1
:1059C000014808F09BB800BF94190024014808F072
:1059D00095B800BF341B0024014808F08FB800BF01
:1059E000D41C002410B5EFF3108472B6084B1A785B
:1059F000120602D504B962B610BD1B784FF4D072FE
:105A000004485BB202FB0300B03002F02FF9F1E76B
:105A1000502000242C16002410B5EFF3108472B629
:105A2000094B1A78120602D504B962B610BD1B786C
:105A30004FF4D07205485BB202FB030000F594708E
:105A400002F014F9F0E700BF502000242C160024C7
:105A50002DE9F04184B0EFF3108772B6284AFF2198
:105A6000284C1368217023B100211160264A106868
:105A7000984723781B061CD5DFF894800025234E19
:105A80004446216879B162686AB1A369012B22D0CA
:105A9000A3B963693046019323690093E3682289BF
:105AA000FFF76AFC18B301351C3406F5D076042DD7
:105AB000E7D107B962B604B0BDE8F081D4E904309B
:105AC000CDE90130E068238900903046FFF7B8FC4B
:105AD0000028E8D10BE0D4E904301146CDE90030CC
